{
  "_format": "hh-sol-artifact-1",
  "contractName": "gpay",
  "sourceName": "contracts/gpay.sol",
  "abi": [
    {
      "inputs": [],
      "stateMutability": "nonpayable",
      "type": "constructor"
    },
    {
      "anonymous": false,
      "inputs": [
        {
          "indexed": true,
          "internalType": "address",
          "name": "from",
          "type": "address"
        },
        {
          "indexed": true,
          "internalType": "address",
          "name": "to",
          "type": "address"
        },
        {
          "indexed": false,
          "internalType": "uint256",
          "name": "amount",
          "type": "uint256"
        }
      ],
      "name": "TransferCompleted",
      "type": "event"
    },
    {
      "inputs": [],
      "name": "getbalance",
      "outputs": [
        {
          "internalType": "uint256",
          "name": "",
          "type": "uint256"
        }
      ],
      "stateMutability": "view",
      "type": "function"
    },
    {
      "inputs": [],
      "name": "onlyowner",
      "outputs": [],
      "stateMutability": "view",
      "type": "function"
    },
    {
      "inputs": [],
      "name": "qrcode",
      "outputs": [
        {
          "internalType": "address",
          "name": "",
          "type": "address"
        }
      ],
      "stateMutability": "view",
      "type": "function"
    },
    {
      "inputs": [
        {
          "internalType": "address payable",
          "name": "recipient",
          "type": "address"
        }
      ],
      "name": "transfer",
      "outputs": [],
      "stateMutability": "payable",
      "type": "function"
    }
  ],
  "bytecode": "0x608060405234801561001057600080fd5b50336000806101000a81548173ffffffffffffffffffffffffffffffffffffffff021916908373ffffffffffffffffffffffffffffffffffffffff16021790555061060f806100606000396000f3fe60806040526004361061003f5760003560e01c80630c8d3a9a146100445780631a6952301461005b5780634d9b3d5d14610077578063e36710a9146100a2575b600080fd5b34801561005057600080fd5b506100596100cd565b005b610075600480360381019061007091906103c1565b61015d565b005b34801561008357600080fd5b5061008c610316565b6040516100999190610407565b60405180910390f35b3480156100ae57600080fd5b506100b7610335565b6040516100c49190610443565b60405180910390f35b60008054906101000a900473ffffffffffffffffffffffffffffffffffffffff1673ffffffffffffffffffffffffffffffffffffffff163373ffffffffffffffffffffffffffffffffffffffff161461015b576040517f08c379a0000000000000000000000000000000000000000000000000000000008152600401610152906104e1565b60405180910390fd5b565b60008054906101000a900473ffffffffffffffffffffffffffffffffffffffff1673ffffffffffffffffffffffffffffffffffffffff163373ffffffffffffffffffffffffffffffffffffffff16146101eb576040517f08c379a00000000000000000000000000000000000000000000000000000000081526004016101e29061054d565b60405180910390fd5b600073ffffffffffffffffffffffffffffffffffffffff168173ffffffffffffffffffffffffffffffffffffffff16141580156102285750600034115b610267576040517f08c379a000000000000000000000000000000000000000000000000000000000815260040161025e906105b9565b60405180910390fd5b8073ffffffffffffffffffffffffffffffffffffffff166108fc349081150290604051600060405180830381858888f193505050501580156102ad573d6000803e3d6000fd5b508073ffffffffffffffffffffffffffffffffffffffff163373ffffffffffffffffffffffffffffffffffffffff167f0300ac1392a8a3b96b8b9c8eb7bf6ad973c028c4cea499a0936076cbdbe87ecf3460405161030b9190610407565b60405180910390a350565b60003373ffffffffffffffffffffffffffffffffffffffff1631905090565b60008060009054906101000a900473ffffffffffffffffffffffffffffffffffffffff16905090565b600080fd5b600073ffffffffffffffffffffffffffffffffffffffff82169050919050565b600061038e82610363565b9050919050565b61039e81610383565b81146103a957600080fd5b50565b6000813590506103bb81610395565b92915050565b6000602082840312156103d7576103d661035e565b5b60006103e5848285016103ac565b91505092915050565b6000819050919050565b610401816103ee565b82525050565b600060208201905061041c60008301846103f8565b92915050565b600061042d82610363565b9050919050565b61043d81610422565b82525050565b60006020820190506104586000830184610434565b92915050565b600082825260208201905092915050565b7f796f7520617265206e6f74206f776e657220706c65617365207377697463682060008201527f746f207573657200000000000000000000000000000000000000000000000000602082015250565b60006104cb60278361045e565b91506104d68261046f565b604082019050919050565b600060208201905081810360008301526104fa816104be565b9050919050565b7f596f7520617265206e6f7420746865206f776e65722e00000000000000000000600082015250565b600061053760168361045e565b915061054282610501565b602082019050919050565b600060208201905081810360008301526105668161052a565b9050919050565b7f696e76616c69642072656369706963656e742000000000000000000000000000600082015250565b60006105a360138361045e565b91506105ae8261056d565b602082019050919050565b600060208201905081810360008301526105d281610596565b905091905056fea26469706673582212205f8f3786528fbcf5d50b2007abd183b769736bd5d35bb400eaa66ea43bc0c28b64736f6c63430008160033",
  "linkReferences": {},
  "deployedLinkReferences": {}
}